{
  "contractName": "ContainerExport",
  "abi": [
    {
      "anonymous": false,
      "inputs": [
        {
          "indexed": true,
          "internalType": "address",
          "name": "sender",
          "type": "address"
        },
        {
          "indexed": true,
          "internalType": "address",
          "name": "newOwner",
          "type": "address"
        }
      ],
      "name": "LogChangeOwner",
      "type": "event"
    },
    {
      "anonymous": false,
      "inputs": [
        {
          "indexed": true,
          "internalType": "address",
          "name": "company",
          "type": "address"
        }
      ],
      "name": "LogCompanyDeregistered",
      "type": "event"
    },
    {
      "anonymous": false,
      "inputs": [
        {
          "indexed": true,
          "internalType": "address",
          "name": "company",
          "type": "address"
        }
      ],
      "name": "LogCompanyRegistered",
      "type": "event"
    },
    {
      "anonymous": false,
      "inputs": [
        {
          "indexed": false,
          "internalType": "bytes32",
          "name": "hash",
          "type": "bytes32"
        },
        {
          "indexed": false,
          "internalType": "string",
          "name": "containerName",
          "type": "string"
        },
        {
          "indexed": false,
          "internalType": "uint256",
          "name": "containerId",
          "type": "uint256"
        }
      ],
      "name": "LogNewContainer",
      "type": "event"
    },
    {
      "anonymous": false,
      "inputs": [
        {
          "indexed": false,
          "internalType": "bytes32",
          "name": "hash",
          "type": "bytes32"
        },
        {
          "indexed": true,
          "internalType": "address",
          "name": "from",
          "type": "address"
        },
        {
          "indexed": true,
          "internalType": "address",
          "name": "to",
          "type": "address"
        },
        {
          "indexed": true,
          "internalType": "uint256",
          "name": "containerId",
          "type": "uint256"
        }
      ],
      "name": "LogTransfer",
      "type": "event"
    },
    {
      "constant": false,
      "inputs": [
        {
          "internalType": "address",
          "name": "newOwner",
          "type": "address"
        }
      ],
      "name": "changeOwner",
      "outputs": [
        {
          "internalType": "bool",
          "name": "success",
          "type": "bool"
        }
      ],
      "payable": false,
      "stateMutability": "nonpayable",
      "type": "function"
    },
    {
      "constant": true,
      "inputs": [
        {
          "internalType": "address",
          "name": "",
          "type": "address"
        }
      ],
      "name": "companies",
      "outputs": [
        {
          "internalType": "bool",
          "name": "",
          "type": "bool"
        }
      ],
      "payable": false,
      "stateMutability": "view",
      "type": "function"
    },
    {
      "constant": true,
      "inputs": [
        {
          "internalType": "bytes32",
          "name": "",
          "type": "bytes32"
        }
      ],
      "name": "container",
      "outputs": [
        {
          "internalType": "address payable",
          "name": "owner",
          "type": "address"
        },
        {
          "internalType": "string",
          "name": "containerName",
          "type": "string"
        },
        {
          "internalType": "uint256",
          "name": "containerId",
          "type": "uint256"
        }
      ],
      "payable": false,
      "stateMutability": "view",
      "type": "function"
    },
    {
      "constant": true,
      "inputs": [],
      "name": "containerId",
      "outputs": [
        {
          "internalType": "uint256",
          "name": "",
          "type": "uint256"
        }
      ],
      "payable": false,
      "stateMutability": "view",
      "type": "function"
    },
    {
      "constant": true,
      "inputs": [
        {
          "internalType": "address",
          "name": "",
          "type": "address"
        }
      ],
      "name": "ownerContainerCount",
      "outputs": [
        {
          "internalType": "uint256",
          "name": "",
          "type": "uint256"
        }
      ],
      "payable": false,
      "stateMutability": "view",
      "type": "function"
    },
    {
      "constant": true,
      "inputs": [
        {
          "internalType": "address",
          "name": "company",
          "type": "address"
        },
        {
          "internalType": "bytes32",
          "name": "password",
          "type": "bytes32"
        }
      ],
      "name": "generateHash",
      "outputs": [
        {
          "internalType": "bytes32",
          "name": "hash",
          "type": "bytes32"
        }
      ],
      "payable": false,
      "stateMutability": "view",
      "type": "function"
    },
    {
      "constant": false,
      "inputs": [
        {
          "internalType": "address",
          "name": "company",
          "type": "address"
        }
      ],
      "name": "registerCompany",
      "outputs": [
        {
          "internalType": "bool",
          "name": "",
          "type": "bool"
        }
      ],
      "payable": false,
      "stateMutability": "nonpayable",
      "type": "function"
    },
    {
      "constant": false,
      "inputs": [
        {
          "internalType": "address",
          "name": "company",
          "type": "address"
        }
      ],
      "name": "deregisterCompany",
      "outputs": [
        {
          "internalType": "bool",
          "name": "",
          "type": "bool"
        }
      ],
      "payable": false,
      "stateMutability": "nonpayable",
      "type": "function"
    },
    {
      "constant": false,
      "inputs": [
        {
          "internalType": "bytes32",
          "name": "hash",
          "type": "bytes32"
        },
        {
          "internalType": "string",
          "name": "containerName",
          "type": "string"
        }
      ],
      "name": "createContainer",
      "outputs": [],
      "payable": false,
      "stateMutability": "nonpayable",
      "type": "function"
    },
    {
      "constant": true,
      "inputs": [
        {
          "internalType": "address",
          "name": "owner",
          "type": "address"
        }
      ],
      "name": "balanceOf",
      "outputs": [
        {
          "internalType": "uint256",
          "name": "",
          "type": "uint256"
        }
      ],
      "payable": false,
      "stateMutability": "view",
      "type": "function"
    },
    {
      "constant": true,
      "inputs": [
        {
          "internalType": "bytes32",
          "name": "hash",
          "type": "bytes32"
        }
      ],
      "name": "ownerOf",
      "outputs": [
        {
          "internalType": "address",
          "name": "",
          "type": "address"
        }
      ],
      "payable": false,
      "stateMutability": "view",
      "type": "function"
    },
    {
      "constant": false,
      "inputs": [
        {
          "internalType": "bytes32",
          "name": "hash",
          "type": "bytes32"
        },
        {
          "internalType": "address payable",
          "name": "from",
          "type": "address"
        },
        {
          "internalType": "address payable",
          "name": "to",
          "type": "address"
        }
      ],
      "name": "transferContainer",
      "outputs": [],
      "payable": true,
      "stateMutability": "payable",
      "type": "function"
    }
  ],
  "bytecode": "0x60806040526001600455336000806101000a81548173ffffffffffffffffffffffffffffffffffffffff021916908373ffffffffffffffffffffffffffffffffffffffff160217905550611599806100586000396000f3fe6080604052600436106100a75760003560e01c8063a6f9dae111610064578063a6f9dae1146102f7578063a94ad5b914610360578063bc51473c14610432578063d19ce3851461049b578063d4f3a75314610589578063fb28cbff146105ee576100a7565b80632e943fbd146100ac578063355e6ce8146100d757806370a08231146101405780637dd56411146101a557806388929f1214610220578063a5fef0571461028e575b600080fd5b3480156100b857600080fd5b506100c161065d565b6040518082815260200191505060405180910390f35b3480156100e357600080fd5b50610126600480360360208110156100fa57600080fd5b81019080803573ffffffffffffffffffffffffffffffffffffffff169060200190929190505050610663565b604051808215151515815260200191505060405180910390f35b34801561014c57600080fd5b5061018f6004803603602081101561016357600080fd5b81019080803573ffffffffffffffffffffffffffffffffffffffff169060200190929190505050610683565b6040518082815260200191505060405180910390f35b3480156101b157600080fd5b506101de600480360360208110156101c857600080fd5b81019080803590602001909291905050506106cc565b604051808273ffffffffffffffffffffffffffffffffffffffff1673ffffffffffffffffffffffffffffffffffffffff16815260200191505060405180910390f35b61028c6004803603606081101561023657600080fd5b8101908080359060200190929190803573ffffffffffffffffffffffffffffffffffffffff169060200190929190803573ffffffffffffffffffffffffffffffffffffffff16906020019092919050505061070c565b005b34801561029a57600080fd5b506102dd600480360360208110156102b157600080fd5b81019080803573ffffffffffffffffffffffffffffffffffffffff169060200190929190505050610927565b604051808215151515815260200191505060405180910390f35b34801561030357600080fd5b506103466004803603602081101561031a57600080fd5b81019080803573ffffffffffffffffffffffffffffffffffffffff169060200190929190505050610bf2565b604051808215151515815260200191505060405180910390f35b34801561036c57600080fd5b506104306004803603604081101561038357600080fd5b8101908080359060200190929190803590602001906401000000008111156103aa57600080fd5b8201836020820111156103bc57600080fd5b803590602001918460018302840111640100000000831117156103de57600080fd5b91908080601f016020809104026020016040519081016040528093929190818152602001838380828437600081840152601f19601f820116905080830192505050505050509192919290505050610ddf565b005b34801561043e57600080fd5b506104816004803603602081101561045557600080fd5b81019080803573ffffffffffffffffffffffffffffffffffffffff169060200190929190505050611037565b604051808215151515815260200191505060405180910390f35b3480156104a757600080fd5b506104d4600480360360208110156104be57600080fd5b810190808035906020019092919050505061125e565b604051808473ffffffffffffffffffffffffffffffffffffffff1673ffffffffffffffffffffffffffffffffffffffff16815260200180602001838152602001828103825284818151815260200191508051906020019080838360005b8381101561054c578082015181840152602081019050610531565b50505050905090810190601f1680156105795780820380516001836020036101000a031916815260200191505b5094505050505060405180910390f35b34801561059557600080fd5b506105d8600480360360208110156105ac57600080fd5b81019080803573ffffffffffffffffffffffffffffffffffffffff169060200190929190505050611340565b6040518082815260200191505060405180910390f35b3480156105fa57600080fd5b506106476004803603604081101561061157600080fd5b81019080803573ffffffffffffffffffffffffffffffffffffffff16906020019092919080359060200190929190505050611358565b6040518082815260200191505060405180910390f35b60045481565b60026020528060005260406000206000915054906101000a900460ff1681565b6000600360008373ffffffffffffffffffffffffffffffffffffffff1673ffffffffffffffffffffffffffffffffffffffff168152602001908152602001600020549050919050565b60006001600083815260200190815260200160002060000160009054906101000a900473ffffffffffffffffffffffffffffffffffffffff169050919050565b3373ffffffffffffffffffffffffffffffffffffffff166001600085815260200190815260200160002060000160009054906101000a900473ffffffffffffffffffffffffffffffffffffffff1673ffffffffffffffffffffffffffffffffffffffff16146107c6576040517f08c379a000000000000000000000000000000000000000000000000000000000815260040180806020018281038252602d815260200180611538602d913960400191505060405180910390fd5b600360008273ffffffffffffffffffffffffffffffffffffffff1673ffffffffffffffffffffffffffffffffffffffff16815260200190815260200160002060008154809291906001019190505550600360008373ffffffffffffffffffffffffffffffffffffffff1673ffffffffffffffffffffffffffffffffffffffff1681526020019081526020016000206000815480929190600190039190505550806001600085815260200190815260200160002060000160006101000a81548173ffffffffffffffffffffffffffffffffffffffff021916908373ffffffffffffffffffffffffffffffffffffffff1602179055506004548173ffffffffffffffffffffffffffffffffffffffff168373ffffffffffffffffffffffffffffffffffffffff167f8dba85ca6a56ceaaa5fbb2490cdfd36abe56f59d26bcb1dc6197c0f11eb581fb866040518082815260200191505060405180910390a4505050565b60008060009054906101000a900473ffffffffffffffffffffffffffffffffffffffff1673ffffffffffffffffffffffffffffffffffffffff163373ffffffffffffffffffffffffffffffffffffffff16146109eb576040517f08c379a000000000000000000000000000000000000000000000000000000000815260040180806020018281038252601c8152602001807f5468652073656e646572206d75737420626520746865206f776e65720000000081525060200191505060405180910390fd5b600073ffffffffffffffffffffffffffffffffffffffff168273ffffffffffffffffffffffffffffffffffffffff161415610a8e576040517f08c379a000000000000000000000000000000000000000000000000000000000815260040180806020018281038252601b8152602001807f436f6d70616e7920697320746865207a65726f2061646472657373000000000081525060200191505060405180910390fd5b600260008373ffffffffffffffffffffffffffffffffffffffff1673ffffffffffffffffffffffffffffffffffffffff16815260200190815260200160002060009054906101000a900460ff1615610b4e576040517f08c379a000000000000000000000000000000000000000000000000000000000815260040180806020018281038252601a8152602001807f436f6d70616e7920616c7265616479207265676973746572656400000000000081525060200191505060405180910390fd5b6001600260008473ffffffffffffffffffffffffffffffffffffffff1673ffffffffffffffffffffffffffffffffffffffff16815260200190815260200160002060006101000a81548160ff0219169083151502179055508173ffffffffffffffffffffffffffffffffffffffff167fdea21ab5a9c520ab354b0f3d5383c6c99ab018146070fe055e9f0a0d22b6a0d160405160405180910390a260019050919050565b60008060009054906101000a900473ffffffffffffffffffffffffffffffffffffffff1673ffffffffffffffffffffffffffffffffffffffff163373ffffffffffffffffffffffffffffffffffffffff1614610cb6576040517f08c379a000000000000000000000000000000000000000000000000000000000815260040180806020018281038252601c8152602001807f5468652073656e646572206d75737420626520746865206f776e65720000000081525060200191505060405180910390fd5b600073ffffffffffffffffffffffffffffffffffffffff168273ffffffffffffffffffffffffffffffffffffffff161415610d3c576040517f08c379a00000000000000000000000000000000000000000000000000000000081526004018080602001828103825260308152602001806115086030913960400191505060405180910390fd5b816000806101000a81548173ffffffffffffffffffffffffffffffffffffffff021916908373ffffffffffffffffffffffffffffffffffffffff1602179055508173ffffffffffffffffffffffffffffffffffffffff163373ffffffffffffffffffffffffffffffffffffffff167f96b36bedce75759b139551b10b3d2e1e863dbbfbdc30f9f9e374bb24431d5da260405160405180910390a360019050919050565b600073ffffffffffffffffffffffffffffffffffffffff166001600084815260200190815260200160002060000160009054906101000a900473ffffffffffffffffffffffffffffffffffffffff1673ffffffffffffffffffffffffffffffffffffffff1614610eb7576040517f08c379a000000000000000000000000000000000000000000000000000000000815260040180806020018281038252601c8152602001807f436f6e7461696e657220616c726561647920726567697374657265640000000081525060200191505060405180910390fd5b6000600160008481526020019081526020016000209050338160000160006101000a81548173ffffffffffffffffffffffffffffffffffffffff021916908373ffffffffffffffffffffffffffffffffffffffff16021790555081816001019080519060200190610f29929190611462565b506004548160020181905550600360003373ffffffffffffffffffffffffffffffffffffffff1673ffffffffffffffffffffffffffffffffffffffff168152602001908152602001600020600081548092919060010191905055507ff0671914ca5b76da24657f621232a1643e240a52c17e42ca4e14a70bd85780ef83836004546040518084815260200180602001838152602001828103825284818151815260200191508051906020019080838360005b83811015610ff6578082015181840152602081019050610fdb565b50505050905090810190601f1680156110235780820380516001836020036101000a031916815260200191505b5094505050505060405180910390a1505050565b60008060009054906101000a900473ffffffffffffffffffffffffffffffffffffffff1673ffffffffffffffffffffffffffffffffffffffff163373ffffffffffffffffffffffffffffffffffffffff16146110fb576040517f08c379a000000000000000000000000000000000000000000000000000000000815260040180806020018281038252601c8152602001807f5468652073656e646572206d75737420626520746865206f776e65720000000081525060200191505060405180910390fd5b600260008373ffffffffffffffffffffffffffffffffffffffff1673ffffffffffffffffffffffffffffffffffffffff16815260200190815260200160002060009054906101000a900460ff166111ba576040517f08c379a00000000000000000000000000000000000000000000000000000000081526004018080602001828103825260168152602001807f436f6d70616e79206e6f7420726567697374657265640000000000000000000081525060200191505060405180910390fd5b6000600260008473ffffffffffffffffffffffffffffffffffffffff1673ffffffffffffffffffffffffffffffffffffffff16815260200190815260200160002060006101000a81548160ff0219169083151502179055508173ffffffffffffffffffffffffffffffffffffffff167fcfaee00b2261e305222dc8afed97d0f2aaab01b75c8b89e22097af25ab7fdc1760405160405180910390a260019050919050565b60016020528060005260406000206000915090508060000160009054906101000a900473ffffffffffffffffffffffffffffffffffffffff1690806001018054600181600116156101000203166002900480601f0160208091040260200160405190810160405280929190818152602001828054600181600116156101000203166002900480156113305780601f1061130557610100808354040283529160200191611330565b820191906000526020600020905b81548152906001019060200180831161131357829003601f168201915b5050505050908060020154905083565b60036020528060005260406000206000915090505481565b60008073ffffffffffffffffffffffffffffffffffffffff168373ffffffffffffffffffffffffffffffffffffffff1614156113fc576040517f08c379a00000000000000000000000000000000000000000000000000000000081526004018080602001828103825260188152602001807f54686520616464726573732063616e277420626520307830000000000000000081525060200191505060405180910390fd5b8282604051602001808373ffffffffffffffffffffffffffffffffffffffff1673ffffffffffffffffffffffffffffffffffffffff1660601b81526014018281526020019250505060405160208183030381529060405280519060200120905092915050565b828054600181600116156101000203166002900490600052602060002090601f016020900481019282601f106114a357805160ff19168380011785556114d1565b828001600101855582156114d1579182015b828111156114d05782518255916020019190600101906114b5565b5b5090506114de91906114e2565b5090565b61150491905b808211156115005760008160009055506001016114e8565b5090565b9056fe5468652061646472657373206f6620746865206e6577206f776e65722073686f756c64206e6f7420626520656d7074795468652073656e646572206d75737420626520746865206f776e6572206f662074686520636f6e7461696e6572a265627a7a723158206f4a7c4efce9ced433c10238f5fff15f3473f8d97382b9da03ea25c050df00f064736f6c63430005100032",
  "source": "pragma solidity >= 0.5.0 < 0.7.0;\r\n\r\nimport './Owner.sol';\r\nimport './safemath.sol';\r\n\r\ncontract ContainerExport is Owner {\r\n\r\n  using SafeMath for uint256;\r\n\r\n  //Set up events\r\n  event LogCompanyRegistered(address indexed company);\r\n  event LogCompanyDeregistered(address indexed company);\r\n  event LogNewContainer(bytes32 hash, string containerName, uint containerId);\r\n  event LogTransfer(bytes32 hash, address indexed from, address indexed to, uint256 indexed containerId);\r\n\r\n  //Struct with properties of the container\r\n  struct Container {\r\n  address payable owner;\r\n  string containerName;\r\n  uint containerId;\r\n  }\r\n\r\n  //Setting up mappings\r\n\r\n  //Hash is assigned to a container\r\n  mapping (bytes32 => Container) public container;\r\n  //Saving the registered companies\r\n  mapping (address => bool) public companies;\r\n  //Counting the containers owned by a company\r\n  mapping (address => uint256) public ownerContainerCount;\r\n\r\n  //global variable containerId\r\n  uint public containerId = 1;\r\n\r\n  //hash a password inside the contract\r\n  function generateHash(address company, bytes32 password) public view returns(bytes32 hash){\r\n    require(company != address(0x0), \"The address can't be 0x0\");\r\n    hash = keccak256(abi.encodePacked(company,password));\r\n  }\r\n\r\n  //Register a company that can transfer containers. Only the contract owner may call the function.\r\n  //returns true if registration is successful\r\n  function registerCompany(address company) public onlyOwner returns (bool) {\r\n    require(company != address(0), \"Company is the zero address\");\r\n    require(!companies[company], \"Company already registered\");\r\n    companies[company] = true;\r\n    emit LogCompanyRegistered(company);\r\n    return true;\r\n  }\r\n\r\n  //Deregister a company so that no more containers can be transferred. Only the contract owner may call the function.\r\n  //returns true if deregistration is successful\r\n  function deregisterCompany(address company) public onlyOwner returns (bool) {\r\n    require(companies[company], \"Company not registered\");\r\n    companies[company] = false;\r\n    emit LogCompanyDeregistered(company);\r\n    return true;\r\n  }\r\n\r\n  //Create new container and store in storage c with related hash\r\n  function createContainer(bytes32 hash, string memory containerName) public {\r\n  require(container[hash].owner == address(0x0) , \"Container already registered\");\r\n  Container storage c = container[hash];\r\n  c.owner = msg.sender;\r\n  c.containerName = containerName;\r\n  c.containerId = containerId;\r\n  ownerContainerCount[msg.sender]++;\r\n  emit LogNewContainer(hash, containerName, containerId);\r\n  }\r\n\r\n  //Function to retrieve the number of containers of an owner\r\n  function balanceOf(address owner) external view returns (uint256) {\r\n  return ownerContainerCount[owner];\r\n  }\r\n\r\n  //container is assigned to owner\r\n  function ownerOf(bytes32 hash) external view returns (address) {\r\n  return container[hash].owner;\r\n  }\r\n\r\n  //Container is transferred from one company to another. Only the container owner can transfer the container.\r\n  function transferContainer(bytes32 hash, address payable from, address payable to) public payable {\r\n    require (container[hash].owner == msg.sender, \"The sender must be the owner of the container\");\r\n    ownerContainerCount[to]++;\r\n    ownerContainerCount[from]--;\r\n    container[hash].owner = to;\r\n    emit LogTransfer(hash, from, to, containerId);\r\n  }\r\n\r\n}\r\n",
  "sourcePath": "/home/vagrant/DAPPS/test-container-export/contracts/ContainerExport.sol",
  "compiler": {
    "name": "solc",
    "version": "0.5.16+commit.9c3226ce.Emscripten.clang"
  },
  "schemaVersion": "3.2.0",
  "updatedAt": "2020-07-01T16:36:24.723Z",
  "devdoc": {
    "methods": {}
  },
  "userdoc": {
    "methods": {}
  }
}