{
  "contractName": "Owner",
  "abi": [
    {
      "inputs": [],
      "payable": false,
      "stateMutability": "nonpayable",
      "type": "constructor"
    },
    {
      "anonymous": false,
      "inputs": [
        {
          "indexed": true,
          "internalType": "address",
          "name": "sender",
          "type": "address"
        },
        {
          "indexed": true,
          "internalType": "address",
          "name": "newOwner",
          "type": "address"
        }
      ],
      "name": "LogChangeOwner",
      "type": "event"
    },
    {
      "constant": false,
      "inputs": [
        {
          "internalType": "address",
          "name": "newOwner",
          "type": "address"
        }
      ],
      "name": "changeOwner",
      "outputs": [
        {
          "internalType": "bool",
          "name": "success",
          "type": "bool"
        }
      ],
      "payable": false,
      "stateMutability": "nonpayable",
      "type": "function"
    }
  ],
  "bytecode": "0x608060405234801561001057600080fd5b50336000806101000a81548173ffffffffffffffffffffffffffffffffffffffff021916908373ffffffffffffffffffffffffffffffffffffffff1602179055506102de806100606000396000f3fe608060405234801561001057600080fd5b506004361061002b5760003560e01c8063a6f9dae114610030575b600080fd5b6100726004803603602081101561004657600080fd5b81019080803573ffffffffffffffffffffffffffffffffffffffff16906020019092919050505061008c565b604051808215151515815260200191505060405180910390f35b60008060009054906101000a900473ffffffffffffffffffffffffffffffffffffffff1673ffffffffffffffffffffffffffffffffffffffff163373ffffffffffffffffffffffffffffffffffffffff1614610150576040517f08c379a000000000000000000000000000000000000000000000000000000000815260040180806020018281038252601c8152602001807f5468652073656e646572206d75737420626520746865206f776e65720000000081525060200191505060405180910390fd5b600073ffffffffffffffffffffffffffffffffffffffff168273ffffffffffffffffffffffffffffffffffffffff1614156101d6576040517f08c379a000000000000000000000000000000000000000000000000000000000815260040180806020018281038252603081526020018061027a6030913960400191505060405180910390fd5b816000806101000a81548173ffffffffffffffffffffffffffffffffffffffff021916908373ffffffffffffffffffffffffffffffffffffffff1602179055508173ffffffffffffffffffffffffffffffffffffffff163373ffffffffffffffffffffffffffffffffffffffff167f96b36bedce75759b139551b10b3d2e1e863dbbfbdc30f9f9e374bb24431d5da260405160405180910390a36001905091905056fe5468652061646472657373206f6620746865206e6577206f776e65722073686f756c64206e6f7420626520656d707479a265627a7a723158205359646d42971337d1d21ee72e36f341fd379d7a7e1a4fd32908dc7db9cfa30664736f6c63430005100032",
  "source": "pragma solidity >= 0.5.0 < 0.7.0;\n\ncontract Owner {\n\n  address private owner;\n\n  event LogChangeOwner(address indexed sender, address indexed newOwner);\n\n  constructor() public {\n    owner = msg.sender;\n  }\n\n   modifier onlyOwner {\n      require(msg.sender == owner,\"The sender must be the owner\");\n      _;\n  }\n\n\n  function changeOwner(address newOwner) public onlyOwner returns(bool success){\n      require(newOwner != address(0x0), \"The address of the new owner should not be empty\");\n      owner = newOwner;\n      emit LogChangeOwner(msg.sender, newOwner);\n      return true;\n  }\n\n}\n",
  "sourcePath": "/home/vagrant/DAPPS/test-container-export/contracts/Owner.sol",
  "compiler": {
    "name": "solc",
    "version": "0.5.16+commit.9c3226ce.Emscripten.clang"
  },
  "schemaVersion": "3.2.0",
  "updatedAt": "2020-07-01T16:36:24.750Z",
  "devdoc": {
    "methods": {}
  },
  "userdoc": {
    "methods": {}
  }
}